{
  "_format": "hh-sol-artifact-1",
  "contractName": "Mintnft",
  "sourceName": "contracts/mintnft.sol",
  "abi": [
    {
      "inputs": [],
      "stateMutability": "nonpayable",
      "type": "constructor"
    },
    {
      "anonymous": false,
      "inputs": [
        {
          "indexed": true,
          "internalType": "address",
          "name": "owner",
          "type": "address"
        },
        {
          "indexed": true,
          "internalType": "address",
          "name": "approved",
          "type": "address"
        },
        {
          "indexed": true,
          "internalType": "uint256",
          "name": "tokenId",
          "type": "uint256"
        }
      ],
      "name": "Approval",
      "type": "event"
    },
    {
      "anonymous": false,
      "inputs": [
        {
          "indexed": true,
          "internalType": "address",
          "name": "owner",
          "type": "address"
        },
        {
          "indexed": true,
          "internalType": "address",
          "name": "operator",
          "type": "address"
        },
        {
          "indexed": false,
          "internalType": "bool",
          "name": "approved",
          "type": "bool"
        }
      ],
      "name": "ApprovalForAll",
      "type": "event"
    },
    {
      "anonymous": false,
      "inputs": [
        {
          "indexed": true,
          "internalType": "address",
          "name": "previousOwner",
          "type": "address"
        },
        {
          "indexed": true,
          "internalType": "address",
          "name": "newOwner",
          "type": "address"
        }
      ],
      "name": "OwnershipTransferred",
      "type": "event"
    },
    {
      "anonymous": false,
      "inputs": [
        {
          "indexed": true,
          "internalType": "address",
          "name": "from",
          "type": "address"
        },
        {
          "indexed": true,
          "internalType": "address",
          "name": "to",
          "type": "address"
        },
        {
          "indexed": true,
          "internalType": "uint256",
          "name": "tokenId",
          "type": "uint256"
        }
      ],
      "name": "Transfer",
      "type": "event"
    },
    {
      "inputs": [],
      "name": "MAX_MINT_PER_TX",
      "outputs": [
        {
          "internalType": "uint256",
          "name": "",
          "type": "uint256"
        }
      ],
      "stateMutability": "view",
      "type": "function"
    },
    {
      "inputs": [],
      "name": "MAX_TOKENS",
      "outputs": [
        {
          "internalType": "uint256",
          "name": "",
          "type": "uint256"
        }
      ],
      "stateMutability": "view",
      "type": "function"
    },
    {
      "inputs": [
        {
          "internalType": "address",
          "name": "to",
          "type": "address"
        },
        {
          "internalType": "uint256",
          "name": "tokenId",
          "type": "uint256"
        }
      ],
      "name": "approve",
      "outputs": [],
      "stateMutability": "nonpayable",
      "type": "function"
    },
    {
      "inputs": [
        {
          "internalType": "address",
          "name": "owner",
          "type": "address"
        }
      ],
      "name": "balanceOf",
      "outputs": [
        {
          "internalType": "uint256",
          "name": "",
          "type": "uint256"
        }
      ],
      "stateMutability": "view",
      "type": "function"
    },
    {
      "inputs": [],
      "name": "baseExtension",
      "outputs": [
        {
          "internalType": "string",
          "name": "",
          "type": "string"
        }
      ],
      "stateMutability": "view",
      "type": "function"
    },
    {
      "inputs": [],
      "name": "baseUri",
      "outputs": [
        {
          "internalType": "string",
          "name": "",
          "type": "string"
        }
      ],
      "stateMutability": "view",
      "type": "function"
    },
    {
      "inputs": [],
      "name": "flipSaleState",
      "outputs": [],
      "stateMutability": "nonpayable",
      "type": "function"
    },
    {
      "inputs": [
        {
          "internalType": "uint256",
          "name": "tokenId",
          "type": "uint256"
        }
      ],
      "name": "getApproved",
      "outputs": [
        {
          "internalType": "address",
          "name": "",
          "type": "address"
        }
      ],
      "stateMutability": "view",
      "type": "function"
    },
    {
      "inputs": [
        {
          "internalType": "address",
          "name": "owner",
          "type": "address"
        },
        {
          "internalType": "address",
          "name": "operator",
          "type": "address"
        }
      ],
      "name": "isApprovedForAll",
      "outputs": [
        {
          "internalType": "bool",
          "name": "",
          "type": "bool"
        }
      ],
      "stateMutability": "view",
      "type": "function"
    },
    {
      "inputs": [],
      "name": "isSaleActive",
      "outputs": [
        {
          "internalType": "bool",
          "name": "",
          "type": "bool"
        }
      ],
      "stateMutability": "view",
      "type": "function"
    },
    {
      "inputs": [
        {
          "internalType": "uint256",
          "name": "_numTokens",
          "type": "uint256"
        }
      ],
      "name": "mint",
      "outputs": [],
      "stateMutability": "payable",
      "type": "function"
    },
    {
      "inputs": [],
      "name": "name",
      "outputs": [
        {
          "internalType": "string",
          "name": "",
          "type": "string"
        }
      ],
      "stateMutability": "view",
      "type": "function"
    },
    {
      "inputs": [],
      "name": "owner",
      "outputs": [
        {
          "internalType": "address",
          "name": "",
          "type": "address"
        }
      ],
      "stateMutability": "view",
      "type": "function"
    },
    {
      "inputs": [
        {
          "internalType": "uint256",
          "name": "tokenId",
          "type": "uint256"
        }
      ],
      "name": "ownerOf",
      "outputs": [
        {
          "internalType": "address",
          "name": "",
          "type": "address"
        }
      ],
      "stateMutability": "view",
      "type": "function"
    },
    {
      "inputs": [],
      "name": "price",
      "outputs": [
        {
          "internalType": "uint256",
          "name": "",
          "type": "uint256"
        }
      ],
      "stateMutability": "view",
      "type": "function"
    },
    {
      "inputs": [],
      "name": "renounceOwnership",
      "outputs": [],
      "stateMutability": "nonpayable",
      "type": "function"
    },
    {
      "inputs": [
        {
          "internalType": "address",
          "name": "from",
          "type": "address"
        },
        {
          "internalType": "address",
          "name": "to",
          "type": "address"
        },
        {
          "internalType": "uint256",
          "name": "tokenId",
          "type": "uint256"
        }
      ],
      "name": "safeTransferFrom",
      "outputs": [],
      "stateMutability": "nonpayable",
      "type": "function"
    },
    {
      "inputs": [
        {
          "internalType": "address",
          "name": "from",
          "type": "address"
        },
        {
          "internalType": "address",
          "name": "to",
          "type": "address"
        },
        {
          "internalType": "uint256",
          "name": "tokenId",
          "type": "uint256"
        },
        {
          "internalType": "bytes",
          "name": "data",
          "type": "bytes"
        }
      ],
      "name": "safeTransferFrom",
      "outputs": [],
      "stateMutability": "nonpayable",
      "type": "function"
    },
    {
      "inputs": [
        {
          "internalType": "address",
          "name": "operator",
          "type": "address"
        },
        {
          "internalType": "bool",
          "name": "approved",
          "type": "bool"
        }
      ],
      "name": "setApprovalForAll",
      "outputs": [],
      "stateMutability": "nonpayable",
      "type": "function"
    },
    {
      "inputs": [
        {
          "internalType": "string",
          "name": "_baseUri",
          "type": "string"
        }
      ],
      "name": "setBaseUri",
      "outputs": [],
      "stateMutability": "nonpayable",
      "type": "function"
    },
    {
      "inputs": [
        {
          "internalType": "uint256",
          "name": "_price",
          "type": "uint256"
        }
      ],
      "name": "setPrice",
      "outputs": [],
      "stateMutability": "nonpayable",
      "type": "function"
    },
    {
      "inputs": [
        {
          "internalType": "bytes4",
          "name": "interfaceId",
          "type": "bytes4"
        }
      ],
      "name": "supportsInterface",
      "outputs": [
        {
          "internalType": "bool",
          "name": "",
          "type": "bool"
        }
      ],
      "stateMutability": "view",
      "type": "function"
    },
    {
      "inputs": [],
      "name": "symbol",
      "outputs": [
        {
          "internalType": "string",
          "name": "",
          "type": "string"
        }
      ],
      "stateMutability": "view",
      "type": "function"
    },
    {
      "inputs": [
        {
          "internalType": "uint256",
          "name": "tokenId",
          "type": "uint256"
        }
      ],
      "name": "tokenURI",
      "outputs": [
        {
          "internalType": "string",
          "name": "",
          "type": "string"
        }
      ],
      "stateMutability": "view",
      "type": "function"
    },
    {
      "inputs": [],
      "name": "totalSupply",
      "outputs": [
        {
          "internalType": "uint256",
          "name": "",
          "type": "uint256"
        }
      ],
      "stateMutability": "view",
      "type": "function"
    },
    {
      "inputs": [
        {
          "internalType": "address",
          "name": "from",
          "type": "address"
        },
        {
          "internalType": "address",
          "name": "to",
          "type": "address"
        },
        {
          "internalType": "uint256",
          "name": "tokenId",
          "type": "uint256"
        }
      ],
      "name": "transferFrom",
      "outputs": [],
      "stateMutability": "nonpayable",
      "type": "function"
    },
    {
      "inputs": [
        {
          "internalType": "address",
          "name": "newOwner",
          "type": "address"
        }
      ],
      "name": "transferOwnership",
      "outputs": [],
      "stateMutability": "nonpayable",
      "type": "function"
    },
    {
      "inputs": [],
      "name": "withdrawAll",
      "outputs": [],
      "stateMutability": "payable",
      "type": "function"
    }
  ],
  "bytecode": "0x608060405267016345785d8a00006007556040518060400160405280600581526020017f2e6a736f6e000000000000000000000000000000000000000000000000000000815250600c908162000056919062000a07565b503480156200006457600080fd5b506040518060400160405280600881526020017f4e4654204e616d650000000000000000000000000000000000000000000000008152506040518060400160405280600681526020017f53594d424f4c00000000000000000000000000000000000000000000000000008152508160009081620000e2919062000a07565b508060019081620000f4919062000a07565b505050620001176200010b6200018760201b60201c565b6200018f60201b60201c565b6040518060600160405280602581526020016200492f60259139600b908162000141919062000a07565b506000600190505b6005811162000178576200016433826200025560201b60201c565b80620001709062000b1d565b905062000149565b50600560098190555062000ecf565b600033905090565b6000600660009054906101000a900473ffffffffffffffffffffffffffffffffffffffff16905081600660006101000a81548173ffffffffffffffffffffffffffffffffffffffff021916908373ffffffffffffffffffffffffffffffffffffffff1602179055508173ffffffffffffffffffffffffffffffffffffffff168173ffffffffffffffffffffffffffffffffffffffff167f8be0079c531659141344cd1fd0a4f28419497f9722a3daafe3b4186f6b6457e060405160405180910390a35050565b620002778282604051806020016040528060008152506200027b60201b60201c565b5050565b6200028d8383620002e960201b60201c565b620002a260008484846200052f60201b60201c565b620002e4576040517f08c379a0000000000000000000000000000000000000000000000000000000008152600401620002db9062000bf1565b60405180910390fd5b505050565b600073ffffffffffffffffffffffffffffffffffffffff168273ffffffffffffffffffffffffffffffffffffffff16036200035b576040517f08c379a0000000000000000000000000000000000000000000000000000000008152600401620003529062000c63565b60405180910390fd5b6200036c81620006d860201b60201c565b15620003af576040517f08c379a0000000000000000000000000000000000000000000000000000000008152600401620003a69062000cd5565b60405180910390fd5b620003c56000838360016200072160201b60201c565b620003d681620006d860201b60201c565b1562000419576040517f08c379a0000000000000000000000000000000000000000000000000000000008152600401620004109062000cd5565b60405180910390fd5b6001600360008473ffffffffffffffffffffffffffffffffffffffff1673ffffffffffffffffffffffffffffffffffffffff16815260200190815260200160002060008282540192505081905550816002600083815260200190815260200160002060006101000a81548173ffffffffffffffffffffffffffffffffffffffff021916908373ffffffffffffffffffffffffffffffffffffffff160217905550808273ffffffffffffffffffffffffffffffffffffffff16600073ffffffffffffffffffffffffffffffffffffffff167fddf252ad1be2c89b69c2b068fc378daa952ba7f163c4a11628f55a4df523b3ef60405160405180910390a46200052b6000838360016200072760201b60201c565b5050565b60006200055d8473ffffffffffffffffffffffffffffffffffffffff166200072d60201b620013b91760201c565b15620006cb578373ffffffffffffffffffffffffffffffffffffffff1663150b7a026200058f6200018760201b60201c565b8786866040518563ffffffff1660e01b8152600401620005b3949392919062000de7565b6020604051808303816000875af1925050508015620005f257506040513d601f19601f82011682018060405250810190620005ef919062000e9d565b60015b6200067a573d806000811462000625576040519150601f19603f3d011682016040523d82523d6000602084013e6200062a565b606091505b50600081510362000672576040517f08c379a0000000000000000000000000000000000000000000000000000000008152600401620006699062000bf1565b60405180910390fd5b805181602001fd5b63150b7a0260e01b7bffffffffffffffffffffffffffffffffffffffffffffffffffffffff1916817bffffffffffffffffffffffffffffffffffffffffffffffffffffffff191614915050620006d0565b600190505b949350505050565b60008073ffffffffffffffffffffffffffffffffffffffff1662000702836200075060201b60201c565b73ffffffffffffffffffffffffffffffffffffffff1614159050919050565b50505050565b50505050565b6000808273ffffffffffffffffffffffffffffffffffffffff163b119050919050565b60006002600083815260200190815260200160002060009054906101000a900473ffffffffffffffffffffffffffffffffffffffff169050919050565b600081519050919050565b7f4e487b7100000000000000000000000000000000000000000000000000000000600052604160045260246000fd5b7f4e487b7100000000000000000000000000000000000000000000000000000000600052602260045260246000fd5b600060028204905060018216806200080f57607f821691505b602082108103620008255762000824620007c7565b5b50919050565b60008190508160005260206000209050919050565b60006020601f8301049050919050565b600082821b905092915050565b6000600883026200088f7fffffffffffffffffffffffffffffffffffffffffffffffffffffffffffffffff8262000850565b6200089b868362000850565b95508019841693508086168417925050509392505050565b6000819050919050565b6000819050919050565b6000620008e8620008e2620008dc84620008b3565b620008bd565b620008b3565b9050919050565b6000819050919050565b6200090483620008c7565b6200091c6200091382620008ef565b8484546200085d565b825550505050565b600090565b6200093362000924565b62000940818484620008f9565b505050565b5b8181101562000968576200095c60008262000929565b60018101905062000946565b5050565b601f821115620009b75762000981816200082b565b6200098c8462000840565b810160208510156200099c578190505b620009b4620009ab8562000840565b83018262000945565b50505b505050565b600082821c905092915050565b6000620009dc60001984600802620009bc565b1980831691505092915050565b6000620009f78383620009c9565b9150826002028217905092915050565b62000a12826200078d565b67ffffffffffffffff81111562000a2e5762000a2d62000798565b5b62000a3a8254620007f6565b62000a478282856200096c565b600060209050601f83116001811462000a7f576000841562000a6a578287015190505b62000a768582620009e9565b86555062000ae6565b601f19841662000a8f866200082b565b60005b8281101562000ab95784890151825560018201915060208501945060208101905062000a92565b8683101562000ad9578489015162000ad5601f891682620009c9565b8355505b6001600288020188555050505b505050505050565b7f4e487b7100000000000000000000000000000000000000000000000000000000600052601160045260246000fd5b600062000b2a82620008b3565b91507fffffffffffffffffffffffffffffffffffffffffffffffffffffffffffffffff820362000b5f5762000b5e62000aee565b5b600182019050919050565b600082825260208201905092915050565b7f4552433732313a207472616e7366657220746f206e6f6e20455243373231526560008201527f63656976657220696d706c656d656e7465720000000000000000000000000000602082015250565b600062000bd960328362000b6a565b915062000be68262000b7b565b604082019050919050565b6000602082019050818103600083015262000c0c8162000bca565b9050919050565b7f4552433732313a206d696e7420746f20746865207a65726f2061646472657373600082015250565b600062000c4b60208362000b6a565b915062000c588262000c13565b602082019050919050565b6000602082019050818103600083015262000c7e8162000c3c565b9050919050565b7f4552433732313a20746f6b656e20616c7265616479206d696e74656400000000600082015250565b600062000cbd601c8362000b6a565b915062000cca8262000c85565b602082019050919050565b6000602082019050818103600083015262000cf08162000cae565b9050919050565b600073ffffffffffffffffffffffffffffffffffffffff82169050919050565b600062000d248262000cf7565b9050919050565b62000d368162000d17565b82525050565b62000d4781620008b3565b82525050565b600081519050919050565b600082825260208201905092915050565b60005b8381101562000d8957808201518184015260208101905062000d6c565b60008484015250505050565b6000601f19601f8301169050919050565b600062000db38262000d4d565b62000dbf818562000d58565b935062000dd181856020860162000d69565b62000ddc8162000d95565b840191505092915050565b600060808201905062000dfe600083018762000d2b565b62000e0d602083018662000d2b565b62000e1c604083018562000d3c565b818103606083015262000e30818462000da6565b905095945050505050565b600080fd5b60007fffffffff0000000000000000000000000000000000000000000000000000000082169050919050565b62000e778162000e40565b811462000e8357600080fd5b50565b60008151905062000e978162000e6c565b92915050565b60006020828403121562000eb65762000eb562000e3b565b5b600062000ec68482850162000e86565b91505092915050565b613a508062000edf6000396000f3fe6080604052600436106101b75760003560e01c80638ecad721116100ec578063a22cb4651161008a578063c87b56dd11610064578063c87b56dd146105a6578063e985e9c5146105e3578063f2fde38b14610620578063f47c84c514610649576101b7565b8063a22cb46514610529578063b88d4fde14610552578063c66828621461057b576101b7565b80639abc8320116100c65780639abc83201461048e578063a035b1fe146104b9578063a0712d68146104e4578063a0bcfc7f14610500576101b7565b80638ecad7211461040f57806391b7f5ed1461043a57806395d89b4114610463576101b7565b806342842e0e1161015957806370a082311161013357806370a0823114610386578063715018a6146103c3578063853828b6146103da5780638da5cb5b146103e4576101b7565b806342842e0e146102f5578063564566a81461031e5780636352211e14610349576101b7565b8063095ea7b311610195578063095ea7b31461026157806318160ddd1461028a57806323b872dd146102b557806334918dfd146102de576101b7565b806301ffc9a7146101bc57806306fdde03146101f9578063081812fc14610224575b600080fd5b3480156101c857600080fd5b506101e360048036038101906101de91906123b2565b610674565b6040516101f091906123fa565b60405180910390f35b34801561020557600080fd5b5061020e610756565b60405161021b91906124a5565b60405180910390f35b34801561023057600080fd5b5061024b600480360381019061024691906124fd565b6107e8565b604051610258919061256b565b60405180910390f35b34801561026d57600080fd5b50610288600480360381019061028391906125b2565b61082e565b005b34801561029657600080fd5b5061029f610945565b6040516102ac9190612601565b60405180910390f35b3480156102c157600080fd5b506102dc60048036038101906102d7919061261c565b61094b565b005b3480156102ea57600080fd5b506102f36109ab565b005b34801561030157600080fd5b5061031c6004803603810190610317919061261c565b6109df565b005b34801561032a57600080fd5b506103336109ff565b60405161034091906123fa565b60405180910390f35b34801561035557600080fd5b50610370600480360381019061036b91906124fd565b610a12565b60405161037d919061256b565b60405180910390f35b34801561039257600080fd5b506103ad60048036038101906103a8919061266f565b610a98565b6040516103ba9190612601565b60405180910390f35b3480156103cf57600080fd5b506103d8610b4f565b005b6103e2610b63565b005b3480156103f057600080fd5b506103f9610cfa565b604051610406919061256b565b60405180910390f35b34801561041b57600080fd5b50610424610d24565b6040516104319190612601565b60405180910390f35b34801561044657600080fd5b50610461600480360381019061045c91906124fd565b610d29565b005b34801561046f57600080fd5b50610478610d3b565b60405161048591906124a5565b60405180910390f35b34801561049a57600080fd5b506104a3610dcd565b6040516104b091906124a5565b60405180910390f35b3480156104c557600080fd5b506104ce610e5b565b6040516104db9190612601565b60405180910390f35b6104fe60048036038101906104f991906124fd565b610e61565b005b34801561050c57600080fd5b50610527600480360381019061052291906127d1565b6110d1565b005b34801561053557600080fd5b50610550600480360381019061054b9190612846565b6110ec565b005b34801561055e57600080fd5b5061057960048036038101906105749190612927565b611102565b005b34801561058757600080fd5b50610590611164565b60405161059d91906124a5565b60405180910390f35b3480156105b257600080fd5b506105cd60048036038101906105c891906124fd565b6111f2565b6040516105da91906124a5565b60405180910390f35b3480156105ef57600080fd5b5061060a600480360381019061060591906129aa565b61129c565b60405161061791906123fa565b60405180910390f35b34801561062c57600080fd5b506106476004803603810190610642919061266f565b611330565b005b34801561065557600080fd5b5061065e6113b3565b60405161066b9190612601565b60405180910390f35b60007f80ac58cd000000000000000000000000000000000000000000000000000000007bffffffffffffffffffffffffffffffffffffffffffffffffffffffff1916827bffffffffffffffffffffffffffffffffffffffffffffffffffffffff1916148061073f57507f5b5e139f000000000000000000000000000000000000000000000000000000007bffffffffffffffffffffffffffffffffffffffffffffffffffffffff1916827bffffffffffffffffffffffffffffffffffffffffffffffffffffffff1916145b8061074f575061074e826113dc565b5b9050919050565b60606000805461076590612a19565b80601f016020809104026020016040519081016040528092919081815260200182805461079190612a19565b80156107de5780601f106107b3576101008083540402835291602001916107de565b820191906000526020600020905b8154815290600101906020018083116107c157829003601f168201915b5050505050905090565b60006107f382611446565b6004600083815260200190815260200160002060009054906101000a900473ffffffffffffffffffffffffffffffffffffffff169050919050565b600061083982610a12565b90508073ffffffffffffffffffffffffffffffffffffffff168373ffffffffffffffffffffffffffffffffffffffff16036108a9576040517f08c379a00000000000000000000000000000000000000000000000000000000081526004016108a090612abc565b60405180910390fd5b8073ffffffffffffffffffffffffffffffffffffffff166108c8611491565b73ffffffffffffffffffffffffffffffffffffffff1614806108f757506108f6816108f1611491565b61129c565b5b610936576040517f08c379a000000000000000000000000000000000000000000000000000000000815260040161092d90612b4e565b60405180910390fd5b6109408383611499565b505050565b60095481565b61095c610956611491565b82611552565b61099b576040517f08c379a000000000000000000000000000000000000000000000000000000000815260040161099290612be0565b60405180910390fd5b6109a68383836115e7565b505050565b6109b36118e0565b600860009054906101000a900460ff1615600860006101000a81548160ff021916908315150217905550565b6109fa83838360405180602001604052806000815250611102565b505050565b600860009054906101000a900460ff1681565b600080610a1e8361195e565b9050600073ffffffffffffffffffffffffffffffffffffffff168173ffffffffffffffffffffffffffffffffffffffff1603610a8f576040517f08c379a0000000000000000000000000000000000000000000000000000000008152600401610a8690612c4c565b60405180910390fd5b80915050919050565b60008073ffffffffffffffffffffffffffffffffffffffff168273ffffffffffffffffffffffffffffffffffffffff1603610b08576040517f08c379a0000000000000000000000000000000000000000000000000000000008152600401610aff90612cde565b60405180910390fd5b600360008373ffffffffffffffffffffffffffffffffffffffff1673ffffffffffffffffffffffffffffffffffffffff168152602001908152602001600020549050919050565b610b576118e0565b610b61600061199b565b565b610b6b6118e0565b600047905060006064604683610b819190612d2d565b610b8b9190612d9e565b905060006064601e84610b9e9190612d2d565b610ba89190612d9e565b90506000737ceb3caf7ca83d837f9d04c59f41a92c1dc71c7d73ffffffffffffffffffffffffffffffffffffffff1683604051610be490612e00565b60006040518083038185875af1925050503d8060008114610c21576040519150601f19603f3d011682016040523d82523d6000602084013e610c26565b606091505b505090506000737ceb3caf7ca83d837f9d04c59f41a92c1dc71c7d73ffffffffffffffffffffffffffffffffffffffff1683604051610c6490612e00565b60006040518083038185875af1925050503d8060008114610ca1576040519150601f19603f3d011682016040523d82523d6000602084013e610ca6565b606091505b50509050818015610cb45750805b610cf3576040517f08c379a0000000000000000000000000000000000000000000000000000000008152600401610cea90612e61565b60405180910390fd5b5050505050565b6000600660009054906101000a900473ffffffffffffffffffffffffffffffffffffffff16905090565b600a81565b610d316118e0565b8060078190555050565b606060018054610d4a90612a19565b80601f0160208091040260200160405190810160405280929190818152602001828054610d7690612a19565b8015610dc35780601f10610d9857610100808354040283529160200191610dc3565b820191906000526020600020905b815481529060010190602001808311610da657829003601f168201915b5050505050905090565b600b8054610dda90612a19565b80601f0160208091040260200160405190810160405280929190818152602001828054610e0690612a19565b8015610e535780601f10610e2857610100808354040283529160200191610e53565b820191906000526020600020905b815481529060010190602001808311610e3657829003601f168201915b505050505081565b60075481565b600860009054906101000a900460ff16610eb0576040517f08c379a0000000000000000000000000000000000000000000000000000000008152600401610ea790612ecd565b60405180910390fd5b600a811115610ef4576040517f08c379a0000000000000000000000000000000000000000000000000000000008152600401610eeb90612f5f565b60405180910390fd5b600a81600a60003373ffffffffffffffffffffffffffffffffffffffff1673ffffffffffffffffffffffffffffffffffffffff16815260200190815260200160002054610f419190612f7f565b1115610f82576040517f08c379a0000000000000000000000000000000000000000000000000000000008152600401610f7990612fff565b60405180910390fd5b600060095490506127108282610f989190612f7f565b1115610fd9576040517f08c379a0000000000000000000000000000000000000000000000000000000008152600401610fd09061306b565b60405180910390fd5b3460075483610fe89190612d2d565b1115611029576040517f08c379a0000000000000000000000000000000000000000000000000000000008152600401611020906130d7565b60405180910390fd5b6000600190505b82811161105d5761104c3382846110479190612f7f565b611a61565b80611056906130f7565b9050611030565b5081600a60003373ffffffffffffffffffffffffffffffffffffffff1673ffffffffffffffffffffffffffffffffffffffff16815260200190815260200160002060008282546110ad9190612f7f565b9250508190555081600960008282546110c69190612f7f565b925050819055505050565b6110d96118e0565b80600b90816110e891906132eb565b5050565b6110fe6110f7611491565b8383611a7f565b5050565b61111361110d611491565b83611552565b611152576040517f08c379a000000000000000000000000000000000000000000000000000000000815260040161114990612be0565b60405180910390fd5b61115e84848484611beb565b50505050565b600c805461117190612a19565b80601f016020809104026020016040519081016040528092919081815260200182805461119d90612a19565b80156111ea5780601f106111bf576101008083540402835291602001916111ea565b820191906000526020600020905b8154815290600101906020018083116111cd57829003601f168201915b505050505081565b60606111fd82611c47565b61123c576040517f08c379a00000000000000000000000000000000000000000000000000000000081526004016112339061342f565b60405180910390fd5b6000611246611c88565b905060008151116112665760405180602001604052806000815250611294565b8061127084611d1a565b600c6040516020016112849392919061350e565b6040516020818303038152906040525b915050919050565b6000600560008473ffffffffffffffffffffffffffffffffffffffff1673ffffffffffffffffffffffffffffffffffffffff16815260200190815260200160002060008373ffffffffffffffffffffffffffffffffffffffff1673ffffffffffffffffffffffffffffffffffffffff16815260200190815260200160002060009054906101000a900460ff16905092915050565b6113386118e0565b600073ffffffffffffffffffffffffffffffffffffffff168173ffffffffffffffffffffffffffffffffffffffff16036113a7576040517f08c379a000000000000000000000000000000000000000000000000000000000815260040161139e906135b1565b60405180910390fd5b6113b08161199b565b50565b61271081565b6000808273ffffffffffffffffffffffffffffffffffffffff163b119050919050565b60007f01ffc9a7000000000000000000000000000000000000000000000000000000007bffffffffffffffffffffffffffffffffffffffffffffffffffffffff1916827bffffffffffffffffffffffffffffffffffffffffffffffffffffffff1916149050919050565b61144f81611c47565b61148e576040517f08c379a000000000000000000000000000000000000000000000000000000000815260040161148590612c4c565b60405180910390fd5b50565b600033905090565b816004600083815260200190815260200160002060006101000a81548173ffffffffffffffffffffffffffffffffffffffff021916908373ffffffffffffffffffffffffffffffffffffffff160217905550808273ffffffffffffffffffffffffffffffffffffffff1661150c83610a12565b73ffffffffffffffffffffffffffffffffffffffff167f8c5be1e5ebec7d5bd14f71427d1e84f3dd0314c0f7b2291e5b200ac8c7c3b92560405160405180910390a45050565b60008061155e83610a12565b90508073ffffffffffffffffffffffffffffffffffffffff168473ffffffffffffffffffffffffffffffffffffffff1614806115a0575061159f818561129c565b5b806115de57508373ffffffffffffffffffffffffffffffffffffffff166115c6846107e8565b73ffffffffffffffffffffffffffffffffffffffff16145b91505092915050565b8273ffffffffffffffffffffffffffffffffffffffff1661160782610a12565b73ffffffffffffffffffffffffffffffffffffffff161461165d576040517f08c379a000000000000000000000000000000000000000000000000000000000815260040161165490613643565b60405180910390fd5b600073ffffffffffffffffffffffffffffffffffffffff168273ffffffffffffffffffffffffffffffffffffffff16036116cc576040517f08c379a00000000000000000000000000000000000000000000000000000000081526004016116c3906136d5565b60405180910390fd5b6116d98383836001611de8565b8273ffffffffffffffffffffffffffffffffffffffff166116f982610a12565b73ffffffffffffffffffffffffffffffffffffffff161461174f576040517f08c379a000000000000000000000000000000000000000000000000000000000815260040161174690613643565b60405180910390fd5b6004600082815260200190815260200160002060006101000a81549073ffffffffffffffffffffffffffffffffffffffff02191690556001600360008573ffffffffffffffffffffffffffffffffffffffff1673ffffffffffffffffffffffffffffffffffffffff168152602001908152602001600020600082825403925050819055506001600360008473ffffffffffffffffffffffffffffffffffffffff1673ffffffffffffffffffffffffffffffffffffffff16815260200190815260200160002060008282540192505081905550816002600083815260200190815260200160002060006101000a81548173ffffffffffffffffffffffffffffffffffffffff021916908373ffffffffffffffffffffffffffffffffffffffff160217905550808273ffffffffffffffffffffffffffffffffffffffff168473ffffffffffffffffffffffffffffffffffffffff167fddf252ad1be2c89b69c2b068fc378daa952ba7f163c4a11628f55a4df523b3ef60405160405180910390a46118db8383836001611dee565b505050565b6118e8611491565b73ffffffffffffffffffffffffffffffffffffffff16611906610cfa565b73ffffffffffffffffffffffffffffffffffffffff161461195c576040517f08c379a000000000000000000000000000000000000000000000000000000000815260040161195390613741565b60405180910390fd5b565b60006002600083815260200190815260200160002060009054906101000a900473ffffffffffffffffffffffffffffffffffffffff169050919050565b6000600660009054906101000a900473ffffffffffffffffffffffffffffffffffffffff16905081600660006101000a81548173ffffffffffffffffffffffffffffffffffffffff021916908373ffffffffffffffffffffffffffffffffffffffff1602179055508173ffffffffffffffffffffffffffffffffffffffff168173ffffffffffffffffffffffffffffffffffffffff167f8be0079c531659141344cd1fd0a4f28419497f9722a3daafe3b4186f6b6457e060405160405180910390a35050565b611a7b828260405180602001604052806000815250611df4565b5050565b8173ffffffffffffffffffffffffffffffffffffffff168373ffffffffffffffffffffffffffffffffffffffff1603611aed576040517f08c379a0000000000000000000000000000000000000000000000000000000008152600401611ae4906137ad565b60405180910390fd5b80600560008573ffffffffffffffffffffffffffffffffffffffff1673ffffffffffffffffffffffffffffffffffffffff16815260200190815260200160002060008473ffffffffffffffffffffffffffffffffffffffff1673ffffffffffffffffffffffffffffffffffffffff16815260200190815260200160002060006101000a81548160ff0219169083151502179055508173ffffffffffffffffffffffffffffffffffffffff168373ffffffffffffffffffffffffffffffffffffffff167f17307eab39ab6107e8899845ad3d59bd9653f200f220920489ca2b5937696c3183604051611bde91906123fa565b60405180910390a3505050565b611bf68484846115e7565b611c0284848484611e4f565b611c41576040517f08c379a0000000000000000000000000000000000000000000000000000000008152600401611c389061383f565b60405180910390fd5b50505050565b60008073ffffffffffffffffffffffffffffffffffffffff16611c698361195e565b73ffffffffffffffffffffffffffffffffffffffff1614159050919050565b6060600b8054611c9790612a19565b80601f0160208091040260200160405190810160405280929190818152602001828054611cc390612a19565b8015611d105780601f10611ce557610100808354040283529160200191611d10565b820191906000526020600020905b815481529060010190602001808311611cf357829003601f168201915b5050505050905090565b606060006001611d2984611fd6565b01905060008167ffffffffffffffff811115611d4857611d476126a6565b5b6040519080825280601f01601f191660200182016040528015611d7a5781602001600182028036833780820191505090505b509050600082602001820190505b600115611ddd578080600190039150507f3031323334353637383961626364656600000000000000000000000000000000600a86061a8153600a8581611dd157611dd0612d6f565b5b04945060008503611d88575b819350505050919050565b50505050565b50505050565b611dfe8383612129565b611e0b6000848484611e4f565b611e4a576040517f08c379a0000000000000000000000000000000000000000000000000000000008152600401611e419061383f565b60405180910390fd5b505050565b6000611e708473ffffffffffffffffffffffffffffffffffffffff166113b9565b15611fc9578373ffffffffffffffffffffffffffffffffffffffff1663150b7a02611e99611491565b8786866040518563ffffffff1660e01b8152600401611ebb94939291906138b4565b6020604051808303816000875af1925050508015611ef757506040513d601f19601f82011682018060405250810190611ef49190613915565b60015b611f79573d8060008114611f27576040519150601f19603f3d011682016040523d82523d6000602084013e611f2c565b606091505b506000815103611f71576040517f08c379a0000000000000000000000000000000000000000000000000000000008152600401611f689061383f565b60405180910390fd5b805181602001fd5b63150b7a0260e01b7bffffffffffffffffffffffffffffffffffffffffffffffffffffffff1916817bffffffffffffffffffffffffffffffffffffffffffffffffffffffff191614915050611fce565b600190505b949350505050565b600080600090507a184f03e93ff9f4daa797ed6e38ed64bf6a1f0100000000000000008310612034577a184f03e93ff9f4daa797ed6e38ed64bf6a1f010000000000000000838161202a57612029612d6f565b5b0492506040810190505b6d04ee2d6d415b85acef81000000008310612071576d04ee2d6d415b85acef8100000000838161206757612066612d6f565b5b0492506020810190505b662386f26fc1000083106120a057662386f26fc10000838161209657612095612d6f565b5b0492506010810190505b6305f5e10083106120c9576305f5e10083816120bf576120be612d6f565b5b0492506008810190505b61271083106120ee5761271083816120e4576120e3612d6f565b5b0492506004810190505b60648310612111576064838161210757612106612d6f565b5b0492506002810190505b600a8310612120576001810190505b80915050919050565b600073ffffffffffffffffffffffffffffffffffffffff168273ffffffffffffffffffffffffffffffffffffffff1603612198576040517f08c379a000000000000000000000000000000000000000000000000000000000815260040161218f9061398e565b60405180910390fd5b6121a181611c47565b156121e1576040517f08c379a00000000000000000000000000000000000000000000000000000000081526004016121d8906139fa565b60405180910390fd5b6121ef600083836001611de8565b6121f881611c47565b15612238576040517f08c379a000000000000000000000000000000000000000000000000000000000815260040161222f906139fa565b60405180910390fd5b6001600360008473ffffffffffffffffffffffffffffffffffffffff1673ffffffffffffffffffffffffffffffffffffffff16815260200190815260200160002060008282540192505081905550816002600083815260200190815260200160002060006101000a81548173ffffffffffffffffffffffffffffffffffffffff021916908373ffffffffffffffffffffffffffffffffffffffff160217905550808273ffffffffffffffffffffffffffffffffffffffff16600073ffffffffffffffffffffffffffffffffffffffff167fddf252ad1be2c89b69c2b068fc378daa952ba7f163c4a11628f55a4df523b3ef60405160405180910390a4612342600083836001611dee565b5050565b6000604051905090565b600080fd5b600080fd5b60007fffffffff0000000000000000000000000000000000000000000000000000000082169050919050565b61238f8161235a565b811461239a57600080fd5b50565b6000813590506123ac81612386565b92915050565b6000602082840312156123c8576123c7612350565b5b60006123d68482850161239d565b91505092915050565b60008115159050919050565b6123f4816123df565b82525050565b600060208201905061240f60008301846123eb565b92915050565b600081519050919050565b600082825260208201905092915050565b60005b8381101561244f578082015181840152602081019050612434565b60008484015250505050565b6000601f19601f8301169050919050565b600061247782612415565b6124818185612420565b9350612491818560208601612431565b61249a8161245b565b840191505092915050565b600060208201905081810360008301526124bf818461246c565b905092915050565b6000819050919050565b6124da816124c7565b81146124e557600080fd5b50565b6000813590506124f7816124d1565b92915050565b60006020828403121561251357612512612350565b5b6000612521848285016124e8565b91505092915050565b600073ffffffffffffffffffffffffffffffffffffffff82169050919050565b60006125558261252a565b9050919050565b6125658161254a565b82525050565b6000602082019050612580600083018461255c565b92915050565b61258f8161254a565b811461259a57600080fd5b50565b6000813590506125ac81612586565b92915050565b600080604083850312156125c9576125c8612350565b5b60006125d78582860161259d565b92505060206125e8858286016124e8565b9150509250929050565b6125fb816124c7565b82525050565b600060208201905061261660008301846125f2565b92915050565b60008060006060848603121561263557612634612350565b5b60006126438682870161259d565b93505060206126548682870161259d565b9250506040612665868287016124e8565b9150509250925092565b60006020828403121561268557612684612350565b5b60006126938482850161259d565b91505092915050565b600080fd5b600080fd5b7f4e487b7100000000000000000000000000000000000000000000000000000000600052604160045260246000fd5b6126de8261245b565b810181811067ffffffffffffffff821117156126fd576126fc6126a6565b5b80604052505050565b6000612710612346565b905061271c82826126d5565b919050565b600067ffffffffffffffff82111561273c5761273b6126a6565b5b6127458261245b565b9050602081019050919050565b82818337600083830152505050565b600061277461276f84612721565b612706565b9050828152602081018484840111156127905761278f6126a1565b5b61279b848285612752565b509392505050565b600082601f8301126127b8576127b761269c565b5b81356127c8848260208601612761565b91505092915050565b6000602082840312156127e7576127e6612350565b5b600082013567ffffffffffffffff81111561280557612804612355565b5b612811848285016127a3565b91505092915050565b612823816123df565b811461282e57600080fd5b50565b6000813590506128408161281a565b92915050565b6000806040838503121561285d5761285c612350565b5b600061286b8582860161259d565b925050602061287c85828601612831565b9150509250929050565b600067ffffffffffffffff8211156128a1576128a06126a6565b5b6128aa8261245b565b9050602081019050919050565b60006128ca6128c584612886565b612706565b9050828152602081018484840111156128e6576128e56126a1565b5b6128f1848285612752565b509392505050565b600082601f83011261290e5761290d61269c565b5b813561291e8482602086016128b7565b91505092915050565b6000806000806080858703121561294157612940612350565b5b600061294f8782880161259d565b94505060206129608782880161259d565b9350506040612971878288016124e8565b925050606085013567ffffffffffffffff81111561299257612991612355565b5b61299e878288016128f9565b91505092959194509250565b600080604083850312156129c1576129c0612350565b5b60006129cf8582860161259d565b92505060206129e08582860161259d565b9150509250929050565b7f4e487b7100000000000000000000000000000000000000000000000000000000600052602260045260246000fd5b60006002820490506001821680612a3157607f821691505b602082108103612a4457612a436129ea565b5b50919050565b7f4552433732313a20617070726f76616c20746f2063757272656e74206f776e6560008201527f7200000000000000000000000000000000000000000000000000000000000000602082015250565b6000612aa6602183612420565b9150612ab182612a4a565b604082019050919050565b60006020820190508181036000830152612ad581612a99565b9050919050565b7f4552433732313a20617070726f76652063616c6c6572206973206e6f7420746f60008201527f6b656e206f776e6572206f7220617070726f76656420666f7220616c6c000000602082015250565b6000612b38603d83612420565b9150612b4382612adc565b604082019050919050565b60006020820190508181036000830152612b6781612b2b565b9050919050565b7f4552433732313a2063616c6c6572206973206e6f7420746f6b656e206f776e6560008201527f72206f7220617070726f76656400000000000000000000000000000000000000602082015250565b6000612bca602d83612420565b9150612bd582612b6e565b604082019050919050565b60006020820190508181036000830152612bf981612bbd565b9050919050565b7f4552433732313a20696e76616c696420746f6b656e2049440000000000000000600082015250565b6000612c36601883612420565b9150612c4182612c00565b602082019050919050565b60006020820190508181036000830152612c6581612c29565b9050919050565b7f4552433732313a2061646472657373207a65726f206973206e6f74206120766160008201527f6c6964206f776e65720000000000000000000000000000000000000000000000602082015250565b6000612cc8602983612420565b9150612cd382612c6c565b604082019050919050565b60006020820190508181036000830152612cf781612cbb565b9050919050565b7f4e487b7100000000000000000000000000000000000000000000000000000000600052601160045260246000fd5b6000612d38826124c7565b9150612d43836124c7565b9250828202612d51816124c7565b91508282048414831517612d6857612d67612cfe565b5b5092915050565b7f4e487b7100000000000000000000000000000000000000000000000000000000600052601260045260246000fd5b6000612da9826124c7565b9150612db4836124c7565b925082612dc457612dc3612d6f565b5b828204905092915050565b600081905092915050565b50565b6000612dea600083612dcf565b9150612df582612dda565b600082019050919050565b6000612e0b82612ddd565b9150819050919050565b7f5472616e73666572206661696c65642e00000000000000000000000000000000600082015250565b6000612e4b601083612420565b9150612e5682612e15565b602082019050919050565b60006020820190508181036000830152612e7a81612e3e565b9050919050565b7f5468652073616c65206973207061757365642e00000000000000000000000000600082015250565b6000612eb7601383612420565b9150612ec282612e81565b602082019050919050565b60006020820190508181036000830152612ee681612eaa565b9050919050565b7f596f752063616e6e6f74206d696e742074686174206d616e7920696e206f6e6560008201527f207472616e73616374696f6e2e00000000000000000000000000000000000000602082015250565b6000612f49602d83612420565b9150612f5482612eed565b604082019050919050565b60006020820190508181036000830152612f7881612f3c565b9050919050565b6000612f8a826124c7565b9150612f95836124c7565b9250828201905080821115612fad57612fac612cfe565b5b92915050565b7f596f752063616e6e6f74206d696e742074686174206d616e7920746f74616c2e600082015250565b6000612fe9602083612420565b9150612ff482612fb3565b602082019050919050565b6000602082019050818103600083015261301881612fdc565b9050919050565b7f4578636565647320746f74616c20737570706c792e0000000000000000000000600082015250565b6000613055601583612420565b91506130608261301f565b602082019050919050565b6000602082019050818103600083015261308481613048565b9050919050565b7f496e73756666696369656e742066756e64732e00000000000000000000000000600082015250565b60006130c1601383612420565b91506130cc8261308b565b602082019050919050565b600060208201905081810360008301526130f0816130b4565b9050919050565b6000613102826124c7565b91507fffffffffffffffffffffffffffffffffffffffffffffffffffffffffffffffff820361313457613133612cfe565b5b600182019050919050565b60008190508160005260206000209050919050565b60006020601f8301049050919050565b600082821b905092915050565b6000600883026131a17fffffffffffffffffffffffffffffffffffffffffffffffffffffffffffffffff82613164565b6131ab8683613164565b95508019841693508086168417925050509392505050565b6000819050919050565b60006131e86131e36131de846124c7565b6131c3565b6124c7565b9050919050565b6000819050919050565b613202836131cd565b61321661320e826131ef565b848454613171565b825550505050565b600090565b61322b61321e565b6132368184846131f9565b505050565b5b8181101561325a5761324f600082613223565b60018101905061323c565b5050565b601f82111561329f576132708161313f565b61327984613154565b81016020851015613288578190505b61329c61329485613154565b83018261323b565b50505b505050565b600082821c905092915050565b60006132c2600019846008026132a4565b1980831691505092915050565b60006132db83836132b1565b9150826002028217905092915050565b6132f482612415565b67ffffffffffffffff81111561330d5761330c6126a6565b5b6133178254612a19565b61332282828561325e565b600060209050601f8311600181146133555760008415613343578287015190505b61334d85826132cf565b8655506133b5565b601f1984166133638661313f565b60005b8281101561338b57848901518255600182019150602085019450602081019050613366565b868310156133a857848901516133a4601f8916826132b1565b8355505b6001600288020188555050505b505050505050565b7f4552433732314d657461646174613a2055524920717565727920666f72206e6f60008201527f6e6578697374656e7420746f6b656e0000000000000000000000000000000000602082015250565b6000613419602f83612420565b9150613424826133bd565b604082019050919050565b600060208201905081810360008301526134488161340c565b9050919050565b600081905092915050565b600061346582612415565b61346f818561344f565b935061347f818560208601612431565b80840191505092915050565b6000815461349881612a19565b6134a2818661344f565b945060018216600081146134bd57600181146134d257613505565b60ff1983168652811515820286019350613505565b6134db8561313f565b60005b838110156134fd578154818901526001820191506020810190506134de565b838801955050505b50505092915050565b600061351a828661345a565b9150613526828561345a565b9150613532828461348b565b9150819050949350505050565b7f4f776e61626c653a206e6577206f776e657220697320746865207a65726f206160008201527f6464726573730000000000000000000000000000000000000000000000000000602082015250565b600061359b602683612420565b91506135a68261353f565b604082019050919050565b600060208201905081810360008301526135ca8161358e565b9050919050565b7f4552433732313a207472616e736665722066726f6d20696e636f72726563742060008201527f6f776e6572000000000000000000000000000000000000000000000000000000602082015250565b600061362d602583612420565b9150613638826135d1565b604082019050919050565b6000602082019050818103600083015261365c81613620565b9050919050565b7f4552433732313a207472616e7366657220746f20746865207a65726f2061646460008201527f7265737300000000000000000000000000000000000000000000000000000000602082015250565b60006136bf602483612420565b91506136ca82613663565b604082019050919050565b600060208201905081810360008301526136ee816136b2565b9050919050565b7f4f776e61626c653a2063616c6c6572206973206e6f7420746865206f776e6572600082015250565b600061372b602083612420565b9150613736826136f5565b602082019050919050565b6000602082019050818103600083015261375a8161371e565b9050919050565b7f4552433732313a20617070726f766520746f2063616c6c657200000000000000600082015250565b6000613797601983612420565b91506137a282613761565b602082019050919050565b600060208201905081810360008301526137c68161378a565b9050919050565b7f4552433732313a207472616e7366657220746f206e6f6e20455243373231526560008201527f63656976657220696d706c656d656e7465720000000000000000000000000000602082015250565b6000613829603283612420565b9150613834826137cd565b604082019050919050565b600060208201905081810360008301526138588161381c565b9050919050565b600081519050919050565b600082825260208201905092915050565b60006138868261385f565b613890818561386a565b93506138a0818560208601612431565b6138a98161245b565b840191505092915050565b60006080820190506138c9600083018761255c565b6138d6602083018661255c565b6138e360408301856125f2565b81810360608301526138f5818461387b565b905095945050505050565b60008151905061390f81612386565b92915050565b60006020828403121561392b5761392a612350565b5b600061393984828501613900565b91505092915050565b7f4552433732313a206d696e7420746f20746865207a65726f2061646472657373600082015250565b6000613978602083612420565b915061398382613942565b602082019050919050565b600060208201905081810360008301526139a78161396b565b9050919050565b7f4552433732313a20746f6b656e20616c7265616479206d696e74656400000000600082015250565b60006139e4601c83612420565b91506139ef826139ae565b602082019050919050565b60006020820190508181036000830152613a13816139d7565b905091905056fea26469706673582212208926afd417b960fde38073e7c381b138bdde157c3e3cd1eda5ec9ab2dfb81d7664736f6c63430008120033697066733a2f2f78787878787878787878787878787878787878787878787878787878782f",
  "linkReferences": {},
  "deployedLinkReferences": {}
}